{
  "contractName": "Token",
  "abi": [
    {
      "inputs": [],
      "stateMutability": "nonpayable",
      "type": "constructor"
    },
    {
      "anonymous": false,
      "inputs": [
        {
          "indexed": true,
          "internalType": "address",
          "name": "owner",
          "type": "address"
        },
        {
          "indexed": true,
          "internalType": "address",
          "name": "spender",
          "type": "address"
        },
        {
          "indexed": false,
          "internalType": "uint256",
          "name": "value",
          "type": "uint256"
        }
      ],
      "name": "Approval",
      "type": "event"
    },
    {
      "anonymous": false,
      "inputs": [
        {
          "indexed": true,
          "internalType": "address",
          "name": "from",
          "type": "address"
        },
        {
          "indexed": true,
          "internalType": "address",
          "name": "to",
          "type": "address"
        },
        {
          "indexed": false,
          "internalType": "uint256",
          "name": "value",
          "type": "uint256"
        }
      ],
      "name": "Transfer",
      "type": "event"
    },
    {
      "inputs": [
        {
          "internalType": "address",
          "name": "",
          "type": "address"
        },
        {
          "internalType": "address",
          "name": "",
          "type": "address"
        }
      ],
      "name": "allowance",
      "outputs": [
        {
          "internalType": "uint256",
          "name": "",
          "type": "uint256"
        }
      ],
      "stateMutability": "view",
      "type": "function"
    },
    {
      "inputs": [
        {
          "internalType": "address",
          "name": "",
          "type": "address"
        }
      ],
      "name": "balances",
      "outputs": [
        {
          "internalType": "uint256",
          "name": "",
          "type": "uint256"
        }
      ],
      "stateMutability": "view",
      "type": "function"
    },
    {
      "inputs": [],
      "name": "decimals",
      "outputs": [
        {
          "internalType": "uint256",
          "name": "",
          "type": "uint256"
        }
      ],
      "stateMutability": "view",
      "type": "function"
    },
    {
      "inputs": [],
      "name": "name",
      "outputs": [
        {
          "internalType": "string",
          "name": "",
          "type": "string"
        }
      ],
      "stateMutability": "view",
      "type": "function"
    },
    {
      "inputs": [],
      "name": "symbol",
      "outputs": [
        {
          "internalType": "string",
          "name": "",
          "type": "string"
        }
      ],
      "stateMutability": "view",
      "type": "function"
    },
    {
      "inputs": [],
      "name": "totalSupply",
      "outputs": [
        {
          "internalType": "uint256",
          "name": "",
          "type": "uint256"
        }
      ],
      "stateMutability": "view",
      "type": "function"
    },
    {
      "inputs": [
        {
          "internalType": "address",
          "name": "",
          "type": "address"
        }
      ],
      "name": "users",
      "outputs": [
        {
          "internalType": "uint256",
          "name": "id",
          "type": "uint256"
        },
        {
          "internalType": "string",
          "name": "name",
          "type": "string"
        },
        {
          "internalType": "uint256",
          "name": "balance",
          "type": "uint256"
        }
      ],
      "stateMutability": "view",
      "type": "function"
    },
    {
      "inputs": [
        {
          "internalType": "uint256",
          "name": "_id",
          "type": "uint256"
        },
        {
          "internalType": "string",
          "name": "_name",
          "type": "string"
        },
        {
          "internalType": "uint256",
          "name": "_balance",
          "type": "uint256"
        }
      ],
      "name": "setProfile",
      "outputs": [],
      "stateMutability": "nonpayable",
      "type": "function"
    },
    {
      "inputs": [
        {
          "internalType": "address",
          "name": "owner",
          "type": "address"
        }
      ],
      "name": "balanceOf",
      "outputs": [
        {
          "internalType": "uint256",
          "name": "",
          "type": "uint256"
        }
      ],
      "stateMutability": "view",
      "type": "function"
    },
    {
      "inputs": [
        {
          "internalType": "address",
          "name": "to",
          "type": "address"
        },
        {
          "internalType": "uint256",
          "name": "value",
          "type": "uint256"
        }
      ],
      "name": "transfer",
      "outputs": [
        {
          "internalType": "bool",
          "name": "",
          "type": "bool"
        }
      ],
      "stateMutability": "nonpayable",
      "type": "function"
    },
    {
      "inputs": [
        {
          "internalType": "address",
          "name": "from",
          "type": "address"
        },
        {
          "internalType": "address",
          "name": "to",
          "type": "address"
        },
        {
          "internalType": "uint256",
          "name": "value",
          "type": "uint256"
        }
      ],
      "name": "transferFrom",
      "outputs": [
        {
          "internalType": "bool",
          "name": "",
          "type": "bool"
        }
      ],
      "stateMutability": "nonpayable",
      "type": "function"
    },
    {
      "inputs": [
        {
          "internalType": "address",
          "name": "spender",
          "type": "address"
        },
        {
          "internalType": "uint256",
          "name": "value",
          "type": "uint256"
        }
      ],
      "name": "approve",
      "outputs": [
        {
          "internalType": "bool",
          "name": "",
          "type": "bool"
        }
      ],
      "stateMutability": "nonpayable",
      "type": "function"
    },
    {
      "inputs": [
        {
          "internalType": "string",
          "name": "id",
          "type": "string"
        }
      ],
      "name": "examineTransaction",
      "outputs": [
        {
          "internalType": "uint256",
          "name": "",
          "type": "uint256"
        }
      ],
      "stateMutability": "nonpayable",
      "type": "function"
    }
  ],
  "bytecode": "0x69021e19e0c9bab240000060035560c060405260026080819052614a5960f01b60a09081526100319160049190610087565b506040805180820190915260038082526245434f60e81b602090920191825261005c91600591610087565b50601260065534801561006e57600080fd5b506003543360009081526001602052604090205561015b565b82805461009390610120565b90600052602060002090601f0160209004810192826100b557600085556100fb565b82601f106100ce57805160ff19168380011785556100fb565b828001600101855582156100fb579182015b828111156100fb5782518255916020019190600101906100e0565b5061010792915061010b565b5090565b5b80821115610107576000815560010161010c565b600181811c9082168061013457607f821691505b6020821081141561015557634e487b7160e01b600052602260045260246000fd5b50919050565b610a668061016a6000396000f3fe608060405234801561001057600080fd5b50600436106100cf5760003560e01c806370a082311161008c578063a9059cbb11610066578063a9059cbb146101bb578063d3b72b14146101ce578063dd62ed3e146101e3578063f99e5a9f1461020e57600080fd5b806370a082311461016857806395d89b4114610191578063a87430ba1461019957600080fd5b806306fdde03146100d4578063095ea7b3146100f257806318160ddd1461011557806323b872dd1461012c57806327e235e31461013f578063313ce5671461015f575b600080fd5b6100dc610222565b6040516100e9919061076d565b60405180910390f35b6101056101003660046107a3565b6102b0565b60405190151581526020016100e9565b61011e60035481565b6040519081526020016100e9565b61010561013a3660046107cd565b61031c565b61011e61014d366004610809565b60016020526000908152604090205481565b61011e60065481565b61011e610176366004610809565b6001600160a01b031660009081526001602052604090205490565b6100dc610495565b6101ac6101a7366004610809565b6104a2565b6040516100e993929190610824565b6101056101c93660046107a3565b61054d565b6101e16101dc3660046108f0565b61062c565b005b61011e6101f1366004610940565b600260209081526000928352604080842090915290825290205481565b61011e61021c366004610973565b50600090565b6004805461022f906109b0565b80601f016020809104026020016040519081016040528092919081815260200182805461025b906109b0565b80156102a85780601f1061027d576101008083540402835291602001916102a8565b820191906000526020600020905b81548152906001019060200180831161028b57829003601f168201915b505050505081565b3360008181526002602090815260408083206001600160a01b038716808552925280832085905551919290917f8c5be1e5ebec7d5bd14f71427d1e84f3dd0314c0f7b2291e5b200ac8c7c3b9259061030b9086815260200190565b60405180910390a350600192915050565b6001600160a01b03831660009081526001602052604081205482111561037b5760405162461bcd60e51b815260206004820152600f60248201526e62616c616e636520746f6f206c6f7760881b60448201526064015b60405180910390fd5b6001600160a01b03841660009081526002602090815260408083203384529091529020548211156103e25760405162461bcd60e51b8152602060048201526011602482015270616c6c6f77616e636520746f6f206c6f7760781b6044820152606401610372565b6001600160a01b0383166000908152600160205260408120805484929061040a908490610a01565b90915550506001600160a01b03841660009081526001602052604081208054849290610437908490610a19565b92505081905550826001600160a01b0316846001600160a01b03167fddf252ad1be2c89b69c2b068fc378daa952ba7f163c4a11628f55a4df523b3ef8460405161048391815260200190565b60405180910390a35060019392505050565b6005805461022f906109b0565b600060208190529081526040902080546001820180549192916104c4906109b0565b80601f01602080910402602001604051908101604052809291908181526020018280546104f0906109b0565b801561053d5780601f106105125761010080835404028352916020019161053d565b820191906000526020600020905b81548152906001019060200180831161052057829003601f168201915b5050505050908060020154905083565b3360009081526001602052604081205482111561059e5760405162461bcd60e51b815260206004820152600f60248201526e62616c616e636520746f6f206c6f7760881b6044820152606401610372565b6001600160a01b038316600090815260016020526040812080548492906105c6908490610a01565b909155505033600090815260016020526040812080548492906105ea908490610a19565b90915550506040518281526001600160a01b0384169033907fddf252ad1be2c89b69c2b068fc378daa952ba7f163c4a11628f55a4df523b3ef9060200161030b565b604080516060810182528481526020808201858152828401859052336000908152808352939093208251815592518051929384939092610673926001850192910190610687565b506040820151816002015590505050505050565b828054610693906109b0565b90600052602060002090601f0160209004810192826106b557600085556106fb565b82601f106106ce57805160ff19168380011785556106fb565b828001600101855582156106fb579182015b828111156106fb5782518255916020019190600101906106e0565b5061070792915061070b565b5090565b5b80821115610707576000815560010161070c565b6000815180845260005b818110156107465760208185018101518683018201520161072a565b81811115610758576000602083870101525b50601f01601f19169290920160200192915050565b6020815260006107806020830184610720565b9392505050565b80356001600160a01b038116811461079e57600080fd5b919050565b600080604083850312156107b657600080fd5b6107bf83610787565b946020939093013593505050565b6000806000606084860312156107e257600080fd5b6107eb84610787565b92506107f960208501610787565b9150604084013590509250925092565b60006020828403121561081b57600080fd5b61078082610787565b83815260606020820152600061083d6060830185610720565b9050826040830152949350505050565b634e487b7160e01b600052604160045260246000fd5b600082601f83011261087457600080fd5b813567ffffffffffffffff8082111561088f5761088f61084d565b604051601f8301601f19908116603f011681019082821181831017156108b7576108b761084d565b816040528381528660208588010111156108d057600080fd5b836020870160208301376000602085830101528094505050505092915050565b60008060006060848603121561090557600080fd5b83359250602084013567ffffffffffffffff81111561092357600080fd5b61092f86828701610863565b925050604084013590509250925092565b6000806040838503121561095357600080fd5b61095c83610787565b915061096a60208401610787565b90509250929050565b60006020828403121561098557600080fd5b813567ffffffffffffffff81111561099c57600080fd5b6109a884828501610863565b949350505050565b600181811c908216806109c457607f821691505b602082108114156109e557634e487b7160e01b600052602260045260246000fd5b50919050565b634e487b7160e01b600052601160045260246000fd5b60008219821115610a1457610a146109eb565b500190565b600082821015610a2b57610a2b6109eb565b50039056fea26469706673582212207f5079f6c7be8f9ef653445875acb3c9eccd0b32609865ab19f5528aa57b07de64736f6c634300080a0033",
  "immutableReferences": {},
  "source": "pragma solidity ^0.8.2;\n\ncontract Token{\n\n    struct User{\n        uint id;\n        string name;\n        uint balance;\n    }\n\n    mapping(address => User) public users;\n    mapping(address => uint) public balances;\n    mapping(address => mapping(address => uint)) public allowance;\n\n    uint public totalSupply = 10000*10**18;\n    string public name = \"JY\";\n    string public symbol = \"ECO\";\n    uint public decimals = 18;\n\n    event Transfer(address indexed from, address indexed to, uint value);\n    event Approval(address indexed owner, address indexed spender, uint value);\n    \n    constructor() {\n        balances[msg.sender] = totalSupply;\n    }\n\n    function setProfile(uint _id, string memory _name, uint _balance) public {\n        User memory user = User(_id, _name, _balance);\n        users[msg.sender] = user;\n    }\n\n    function balanceOf(address owner) public view returns(uint) {\n        return balances[owner];\n    }\n\n    function transfer(address to, uint value) public returns(bool){\n        require(balanceOf(msg.sender) >= value, 'balance too low');\n        balances[to] += value;\n        balances[msg.sender] -= value;\n        emit Transfer(msg.sender, to, value);\n        return true;\n    }\n\n    function transferFrom(address from, address to, uint value) public returns(bool){\n        require(balanceOf(from) >= value, 'balance too low');\n        require(allowance[from][msg.sender] >= value, 'allowance too low');\n        balances[to] += value;\n        balances[from] -= value;\n        emit Transfer(from, to, value);\n        return true;\n    }\n\n    function approve(address spender, uint value) public returns(bool){\n        allowance[msg.sender][spender] = value;\n        emit Approval(msg.sender, spender, value);\n        return true;\n    }\n\n    function examineTransaction(string memory id) public returns(uint){\n\n    }\n\n}",
  "sourcePath": "C:\\Users\\JY\\OneDrive\\\\ECO_BSC\\contracts\\Token.sol",
  "compiler": {
    "name": "solc",
    "version": "0.8.10+commit.fc410830.Emscripten.clang"
  },
  "schemaVersion": "3.4.3",
  "updatedAt": "2021-12-05T09:25:31.522Z",
  "devdoc": {
    "kind": "dev",
    "methods": {},
    "version": 1
  },
  "userdoc": {
    "kind": "user",
    "methods": {},
    "version": 1
  }
}