{
  "contractName": "Token",
  "abi": [
    {
      "inputs": [],
      "stateMutability": "nonpayable",
      "type": "constructor"
    },
    {
      "anonymous": false,
      "inputs": [
        {
          "indexed": true,
          "internalType": "address",
          "name": "owner",
          "type": "address"
        },
        {
          "indexed": true,
          "internalType": "address",
          "name": "spender",
          "type": "address"
        },
        {
          "indexed": false,
          "internalType": "uint256",
          "name": "value",
          "type": "uint256"
        }
      ],
      "name": "Approval",
      "type": "event"
    },
    {
      "anonymous": false,
      "inputs": [
        {
          "indexed": true,
          "internalType": "address",
          "name": "to",
          "type": "address"
        },
        {
          "indexed": false,
          "internalType": "uint256",
          "name": "value",
          "type": "uint256"
        }
      ],
      "name": "Deposit",
      "type": "event"
    },
    {
      "anonymous": false,
      "inputs": [
        {
          "indexed": true,
          "internalType": "uint256",
          "name": "transId",
          "type": "uint256"
        },
        {
          "indexed": true,
          "internalType": "uint256",
          "name": "date",
          "type": "uint256"
        },
        {
          "indexed": false,
          "internalType": "uint256",
          "name": "price",
          "type": "uint256"
        },
        {
          "indexed": false,
          "internalType": "uint256",
          "name": "merchantId",
          "type": "uint256"
        }
      ],
      "name": "Purchase",
      "type": "event"
    },
    {
      "anonymous": false,
      "inputs": [
        {
          "indexed": true,
          "internalType": "address",
          "name": "to",
          "type": "address"
        },
        {
          "indexed": false,
          "internalType": "uint256",
          "name": "value",
          "type": "uint256"
        },
        {
          "indexed": true,
          "internalType": "uint256",
          "name": "transId",
          "type": "uint256"
        }
      ],
      "name": "TokenRedeem",
      "type": "event"
    },
    {
      "anonymous": false,
      "inputs": [
        {
          "indexed": true,
          "internalType": "address",
          "name": "from",
          "type": "address"
        },
        {
          "indexed": true,
          "internalType": "address",
          "name": "to",
          "type": "address"
        },
        {
          "indexed": false,
          "internalType": "uint256",
          "name": "value",
          "type": "uint256"
        }
      ],
      "name": "Transfer",
      "type": "event"
    },
    {
      "anonymous": false,
      "inputs": [
        {
          "indexed": true,
          "internalType": "address",
          "name": "from",
          "type": "address"
        },
        {
          "indexed": false,
          "internalType": "uint256",
          "name": "value",
          "type": "uint256"
        }
      ],
      "name": "Withdrawl",
      "type": "event"
    },
    {
      "inputs": [
        {
          "internalType": "address",
          "name": "",
          "type": "address"
        },
        {
          "internalType": "address",
          "name": "",
          "type": "address"
        }
      ],
      "name": "allowance",
      "outputs": [
        {
          "internalType": "uint256",
          "name": "",
          "type": "uint256"
        }
      ],
      "stateMutability": "view",
      "type": "function"
    },
    {
      "inputs": [
        {
          "internalType": "address",
          "name": "",
          "type": "address"
        }
      ],
      "name": "balances",
      "outputs": [
        {
          "internalType": "uint256",
          "name": "",
          "type": "uint256"
        }
      ],
      "stateMutability": "view",
      "type": "function"
    },
    {
      "inputs": [],
      "name": "decimals",
      "outputs": [
        {
          "internalType": "uint256",
          "name": "",
          "type": "uint256"
        }
      ],
      "stateMutability": "view",
      "type": "function"
    },
    {
      "inputs": [],
      "name": "name",
      "outputs": [
        {
          "internalType": "string",
          "name": "",
          "type": "string"
        }
      ],
      "stateMutability": "view",
      "type": "function"
    },
    {
      "inputs": [],
      "name": "symbol",
      "outputs": [
        {
          "internalType": "string",
          "name": "",
          "type": "string"
        }
      ],
      "stateMutability": "view",
      "type": "function"
    },
    {
      "inputs": [],
      "name": "totalSupply",
      "outputs": [
        {
          "internalType": "uint256",
          "name": "",
          "type": "uint256"
        }
      ],
      "stateMutability": "view",
      "type": "function"
    },
    {
      "inputs": [],
      "name": "transactionIdIterable",
      "outputs": [
        {
          "internalType": "uint256",
          "name": "",
          "type": "uint256"
        }
      ],
      "stateMutability": "view",
      "type": "function"
    },
    {
      "inputs": [
        {
          "internalType": "uint256",
          "name": "",
          "type": "uint256"
        }
      ],
      "name": "transactions",
      "outputs": [
        {
          "internalType": "uint256",
          "name": "merchantId",
          "type": "uint256"
        },
        {
          "internalType": "uint256",
          "name": "price",
          "type": "uint256"
        },
        {
          "internalType": "uint256",
          "name": "transId",
          "type": "uint256"
        },
        {
          "internalType": "uint256",
          "name": "date",
          "type": "uint256"
        },
        {
          "internalType": "address",
          "name": "wallet",
          "type": "address"
        }
      ],
      "stateMutability": "view",
      "type": "function"
    },
    {
      "inputs": [
        {
          "internalType": "address",
          "name": "owner",
          "type": "address"
        }
      ],
      "name": "balanceOf",
      "outputs": [
        {
          "internalType": "uint256",
          "name": "",
          "type": "uint256"
        }
      ],
      "stateMutability": "view",
      "type": "function"
    },
    {
      "inputs": [
        {
          "internalType": "address",
          "name": "to",
          "type": "address"
        },
        {
          "internalType": "uint256",
          "name": "value",
          "type": "uint256"
        }
      ],
      "name": "transfer",
      "outputs": [
        {
          "internalType": "bool",
          "name": "",
          "type": "bool"
        }
      ],
      "stateMutability": "nonpayable",
      "type": "function"
    },
    {
      "inputs": [
        {
          "internalType": "address",
          "name": "from",
          "type": "address"
        },
        {
          "internalType": "address",
          "name": "to",
          "type": "address"
        },
        {
          "internalType": "uint256",
          "name": "value",
          "type": "uint256"
        }
      ],
      "name": "transferFrom",
      "outputs": [
        {
          "internalType": "bool",
          "name": "",
          "type": "bool"
        }
      ],
      "stateMutability": "nonpayable",
      "type": "function"
    },
    {
      "inputs": [
        {
          "internalType": "address",
          "name": "spender",
          "type": "address"
        },
        {
          "internalType": "uint256",
          "name": "value",
          "type": "uint256"
        }
      ],
      "name": "approve",
      "outputs": [
        {
          "internalType": "bool",
          "name": "",
          "type": "bool"
        }
      ],
      "stateMutability": "nonpayable",
      "type": "function"
    },
    {
      "inputs": [],
      "name": "deposit",
      "outputs": [],
      "stateMutability": "payable",
      "type": "function"
    },
    {
      "inputs": [
        {
          "internalType": "uint256",
          "name": "value",
          "type": "uint256"
        }
      ],
      "name": "withdraw",
      "outputs": [],
      "stateMutability": "nonpayable",
      "type": "function"
    },
    {
      "inputs": [
        {
          "internalType": "uint256",
          "name": "price",
          "type": "uint256"
        },
        {
          "internalType": "uint256",
          "name": "merchantId",
          "type": "uint256"
        },
        {
          "internalType": "uint256",
          "name": "date",
          "type": "uint256"
        },
        {
          "internalType": "uint256",
          "name": "transId",
          "type": "uint256"
        }
      ],
      "name": "insertPurchaseRecord",
      "outputs": [
        {
          "internalType": "bool",
          "name": "",
          "type": "bool"
        }
      ],
      "stateMutability": "nonpayable",
      "type": "function"
    },
    {
      "inputs": [
        {
          "internalType": "uint256",
          "name": "transId",
          "type": "uint256"
        }
      ],
      "name": "getPurchaseRecord",
      "outputs": [
        {
          "internalType": "uint256",
          "name": "",
          "type": "uint256"
        },
        {
          "internalType": "uint256",
          "name": "",
          "type": "uint256"
        },
        {
          "internalType": "uint256",
          "name": "",
          "type": "uint256"
        },
        {
          "internalType": "uint256",
          "name": "",
          "type": "uint256"
        }
      ],
      "stateMutability": "view",
      "type": "function"
    },
    {
      "inputs": [
        {
          "internalType": "address",
          "name": "to",
          "type": "address"
        },
        {
          "internalType": "uint256",
          "name": "value",
          "type": "uint256"
        },
        {
          "internalType": "uint256",
          "name": "transId",
          "type": "uint256"
        }
      ],
      "name": "tokenRedeem",
      "outputs": [
        {
          "internalType": "bool",
          "name": "",
          "type": "bool"
        }
      ],
      "stateMutability": "nonpayable",
      "type": "function"
    },
    {
      "inputs": [],
      "name": "newTransactionId",
      "outputs": [
        {
          "internalType": "uint256",
          "name": "",
          "type": "uint256"
        }
      ],
      "stateMutability": "nonpayable",
      "type": "function"
    }
  ],
  "bytecode": "0x69021e19e0c9bab240000060035560c060405260026080819052614a5960f01b60a0908152620000339160049190620000a9565b506040805180820190915260038082526245434f60e81b60209092019182526200006091600591620000a9565b5060126006556103e86008553480156200007957600080fd5b5060035433600081815260208190526040902091909155600780546001600160a01b03191690911790556200018c565b828054620000b7906200014f565b90600052602060002090601f016020900481019282620000db576000855562000126565b82601f10620000f657805160ff191683800117855562000126565b8280016001018555821562000126579182015b828111156200012657825182559160200191906001019062000109565b506200013492915062000138565b5090565b5b8082111562000134576000815560010162000139565b600181811c908216806200016457607f821691505b602082108114156200018657634e487b7160e01b600052602260045260246000fd5b50919050565b610d40806200019c6000396000f3fe6080604052600436106101095760003560e01c806370a0823111610095578063a9059cbb11610064578063a9059cbb14610378578063c2f798d514610398578063d0e30db0146103ad578063dd62ed3e146103b5578063ede4a9cb146103ed57600080fd5b806370a08231146102935780637e234c28146102c957806395d89b41146102df5780639ace38c2146102f457600080fd5b806327e235e3116100dc57806327e235e3146101ad5780632e1a7d4d146101da578063313ce567146101fc578063595df559146102125780636ff8f2f71461023257600080fd5b806306fdde031461010e578063095ea7b31461013957806318160ddd1461016957806323b872dd1461018d575b600080fd5b34801561011a57600080fd5b5061012361040d565b6040516101309190610ab7565b60405180910390f35b34801561014557600080fd5b50610159610154366004610b28565b61049b565b6040519015158152602001610130565b34801561017557600080fd5b5061017f60035481565b604051908152602001610130565b34801561019957600080fd5b506101596101a8366004610b52565b610507565b3480156101b957600080fd5b5061017f6101c8366004610b8e565b60006020819052908152604090205481565b3480156101e657600080fd5b506101fa6101f5366004610bb0565b6106de565b005b34801561020857600080fd5b5061017f60065481565b34801561021e57600080fd5b5061015961022d366004610bc9565b610784565b34801561023e57600080fd5b5061027361024d366004610bb0565b600090815260026020819052604090912080546001820154928201546003909201549093565b604080519485526020850193909352918301526060820152608001610130565b34801561029f57600080fd5b5061017f6102ae366004610b8e565b6001600160a01b031660009081526020819052604090205490565b3480156102d557600080fd5b5061017f60085481565b3480156102eb57600080fd5b50610123610852565b34801561030057600080fd5b5061034761030f366004610bb0565b60026020819052600091825260409091208054600182015492820154600383015460049093015491939290916001600160a01b031685565b6040805195865260208601949094529284019190915260608301526001600160a01b0316608082015260a001610130565b34801561038457600080fd5b50610159610393366004610b28565b61085f565b3480156103a457600080fd5b5061017f61091c565b6101fa61093e565b3480156103c157600080fd5b5061017f6103d0366004610bfb565b600160209081526000928352604080842090915290825290205481565b3480156103f957600080fd5b50610159610408366004610c2e565b610999565b6004805461041a90610c61565b80601f016020809104026020016040519081016040528092919081815260200182805461044690610c61565b80156104935780601f1061046857610100808354040283529160200191610493565b820191906000526020600020905b81548152906001019060200180831161047657829003601f168201915b505050505081565b3360008181526001602090815260408083206001600160a01b038716808552925280832085905551919290917f8c5be1e5ebec7d5bd14f71427d1e84f3dd0314c0f7b2291e5b200ac8c7c3b925906104f69086815260200190565b60405180910390a350600192915050565b6001600160a01b0383166000908152602081905260408120548211156105485760405162461bcd60e51b815260040161053f90610c9c565b60405180910390fd5b6001600160a01b038416331480159061058657506001600160a01b038416600090815260016020908152604080832033845290915290205460001914155b1561062b576001600160a01b03841660009081526001602090815260408083203384529091529020548211156105f25760405162461bcd60e51b8152602060048201526011602482015270616c6c6f77616e636520746f6f206c6f7760781b604482015260640161053f565b6001600160a01b038416600090815260016020908152604080832033845290915281208054849290610625908490610cdb565b90915550505b6001600160a01b03831660009081526020819052604081208054849290610653908490610cf2565b90915550506001600160a01b03841660009081526020819052604081208054849290610680908490610cdb565b92505081905550826001600160a01b0316846001600160a01b03167fddf252ad1be2c89b69c2b068fc378daa952ba7f163c4a11628f55a4df523b3ef846040516106cc91815260200190565b60405180910390a35060019392505050565b336000908152602081905260409020548111156106fa57600080fd5b3360009081526020819052604081208054839290610719908490610cdb565b9091555050604051339082156108fc029083906000818181858888f1935050505015801561074b573d6000803e3d6000fd5b5060405181815233907f65ac0d8bb8cbc0e989ebd02ddc5161d7c499f7c21792e43fcf170314fe6bcc3f9060200160405180910390a250565b6000818152600260208190526040822001548214156107e55760405162461bcd60e51b815260206004820152601a60248201527f5472616e73616374696f6e20616c726561647920657869737473000000000000604482015260640161053f565b60008281526002602081815260409283902060018101899055878155600381018790559091018490558151878152908101869052849184917e3db7833ead1faebf1b3b7156a49668804e91805e4fb41dd79bb502d3fca783910160405180910390a3506001949350505050565b6005805461041a90610c61565b3360009081526020819052604081205482111561088e5760405162461bcd60e51b815260040161053f90610c9c565b6001600160a01b038316600090815260208190526040812080548492906108b6908490610cf2565b909155505033600090815260208190526040812080548492906108da908490610cdb565b90915550506040518281526001600160a01b0384169033907fddf252ad1be2c89b69c2b068fc378daa952ba7f163c4a11628f55a4df523b3ef906020016104f6565b60006001600860008282546109319190610cf2565b9091555050600854919050565b336000908152602081905260408120805434929061095d908490610cf2565b909155505060405134815233907fe1fffcc4923d04b559f4d29a8bfc6cda04eb5b0d3c460751c2402c5c5cc9109c9060200160405180910390a2565b600060085482146109e45760405162461bcd60e51b81526020600482015260156024820152740a8e4c2dce6c2c6e8d2dedc409cdee8409ac2e8c6d605b1b604482015260640161053f565b6007546001600160a01b0316600090815260208190526040902054831115610a1e5760405162461bcd60e51b815260040161053f90610c9c565b6001600160a01b03841660009081526020819052604081208054859290610a46908490610cf2565b90915550506007546001600160a01b031660009081526020819052604081208054859290610a75908490610cdb565b909155505060405183815282906001600160a01b038616907f8151f214cf1e8e2e300e143c949bfd54f827b5504d43e2b407ea6cf3f63cbb89906020016106cc565b600060208083528351808285015260005b81811015610ae457858101830151858201604001528201610ac8565b81811115610af6576000604083870101525b50601f01601f1916929092016040019392505050565b80356001600160a01b0381168114610b2357600080fd5b919050565b60008060408385031215610b3b57600080fd5b610b4483610b0c565b946020939093013593505050565b600080600060608486031215610b6757600080fd5b610b7084610b0c565b9250610b7e60208501610b0c565b9150604084013590509250925092565b600060208284031215610ba057600080fd5b610ba982610b0c565b9392505050565b600060208284031215610bc257600080fd5b5035919050565b60008060008060808587031215610bdf57600080fd5b5050823594602084013594506040840135936060013592509050565b60008060408385031215610c0e57600080fd5b610c1783610b0c565b9150610c2560208401610b0c565b90509250929050565b600080600060608486031215610c4357600080fd5b610c4c84610b0c565b95602085013595506040909401359392505050565b600181811c90821680610c7557607f821691505b60208210811415610c9657634e487b7160e01b600052602260045260246000fd5b50919050565b6020808252600f908201526e62616c616e636520746f6f206c6f7760881b604082015260600190565b634e487b7160e01b600052601160045260246000fd5b600082821015610ced57610ced610cc5565b500390565b60008219821115610d0557610d05610cc5565b50019056fea26469706673582212204f390ed1b118230ef04e220c5ca87fcca1d27cbdb10673aa7f02e7bf52ca744364736f6c634300080a0033",
  "immutableReferences": {},
  "source": "//SPDX-License-Identifier: MIT\r\npragma solidity ^0.8.2;\r\n\r\ncontract Token{\r\n\r\n    struct purchaseRecords{\r\n        uint merchantId;\r\n        uint price;\r\n        uint transId;\r\n        uint256 date;\r\n        address wallet;\r\n    }\r\n\r\n    mapping(address => uint) public balances;\r\n    mapping(address => mapping(address => uint)) public allowance;\r\n    mapping(uint => purchaseRecords) public transactions;\r\n\r\n    uint public totalSupply = 10000*10**18;\r\n    string public name = \"JY\";\r\n    string public symbol = \"ECO\";\r\n    uint public decimals = 18;\r\n\r\n    address issuer;\r\n    uint public transactionIdIterable = 1000;\r\n\r\n    event Transfer(address indexed from, address indexed to, uint value);\r\n    event Approval(address indexed owner, address indexed spender, uint value);\r\n    event Deposit(address indexed to, uint value);\r\n    event Withdrawl(address indexed from, uint value);\r\n    \r\n    event Purchase(uint indexed transId, uint256 indexed date, uint price, uint merchantId);\r\n    event TokenRedeem(address indexed to, uint value, uint indexed transId);\r\n\r\n\r\n    constructor() {\r\n        balances[msg.sender] = totalSupply;\r\n        issuer = msg.sender;\r\n    }\r\n\r\n    function balanceOf(address owner) public view returns(uint) {\r\n        return balances[owner];\r\n    }\r\n\r\n    // Securty to-be-implemented\r\n    function transfer(address to, uint value) public returns(bool){\r\n        require(balanceOf(msg.sender) >= value, 'balance too low');\r\n        balances[to] += value;\r\n        balances[msg.sender] -= value;\r\n        emit Transfer(msg.sender, to, value);\r\n        return true;\r\n    }\r\n\r\n    // function of (Purchase, Reward) \r\n    function transferFrom(address from, address to, uint value) public returns(bool){\r\n        require(balanceOf(from) >= value, 'balance too low');\r\n\r\n        if(from != msg.sender && allowance[from][msg.sender] != type(uint).max){\r\n            require(allowance[from][msg.sender] >= value, 'allowance too low');\r\n            allowance[from][msg.sender] -= value;\r\n        }\r\n        \r\n        balances[to] += value;\r\n        balances[from] -= value;\r\n        emit Transfer(from, to, value);\r\n        return true;\r\n    }\r\n\r\n    function approve(address spender, uint value) public returns(bool){\r\n        allowance[msg.sender][spender] = value;\r\n        emit Approval(msg.sender, spender, value);\r\n        return true;\r\n    }\r\n\r\n    function deposit() public payable{\r\n        balances[msg.sender] += msg.value;\r\n        emit Deposit(msg.sender, msg.value);\r\n    }\r\n\r\n    function withdraw(uint value) public{\r\n        require(balanceOf(msg.sender) >= value);\r\n        balances[msg.sender] -= value;\r\n        payable(msg.sender).transfer(value);\r\n        emit Withdrawl(msg.sender, value);\r\n    }\r\n\r\n    // Security to-be-implemented\r\n    function insertPurchaseRecord(uint price, uint merchantId, uint256 date, uint transId) public returns(bool) {\r\n        require(transId != transactions[transId].transId, 'Transaction already exists');\r\n        transactions[transId].price = price;\r\n        transactions[transId].merchantId = merchantId;\r\n        transactions[transId].date = date;\r\n        transactions[transId].transId = transId;\r\n\r\n        emit Purchase(transId, date, price, merchantId);\r\n        return true;\r\n    }\r\n\r\n    function getPurchaseRecord(uint transId) public view returns(uint, uint, uint, uint256){\r\n        return(transactions[transId].merchantId, transactions[transId].price, transactions[transId].transId, transactions[transId].date);\r\n    }\r\n\r\n    // Security to-be-implemented\r\n    function tokenRedeem(address to, uint value, uint transId) public returns(bool){\r\n        require(transId == transactionIdIterable, 'Transaction Not Match');\r\n        require(balanceOf(issuer) >= value, 'balance too low');\r\n\r\n        // Fill up user's wallet to record\r\n        transactions[transId].wallet == to;\r\n\r\n        balances[to] += value;\r\n        balances[issuer] -= value;\r\n        emit TokenRedeem(to, value, transId);\r\n        return true;\r\n    }\r\n\r\n    // Security to-be-implemented\r\n    function newTransactionId() public returns(uint){\r\n        transactionIdIterable += 1;\r\n        return transactionIdIterable;\r\n    }\r\n}",
  "sourcePath": "C:\\Users\\JY\\OneDrive - The Chinese University of Hong Kong\\IERG4998I_FYPI\\Contracts\\ECO_Contract_Github\\ECO_Contract-1\\contracts\\Token.sol",
  "compiler": {
    "name": "solc",
    "version": "0.8.10+commit.fc410830.Emscripten.clang"
  },
  "schemaVersion": "3.4.3",
  "updatedAt": "2022-03-15T16:49:18.677Z",
  "devdoc": {
    "kind": "dev",
    "methods": {},
    "version": 1
  },
  "userdoc": {
    "kind": "user",
    "methods": {},
    "version": 1
  }
}